:100000000C946A000C9499000C9499000C9499003B
:100010000C9499000C9499000C9499000C949900FC
:100020000C9499000C9499000C9499000C949900EC
:100030000C9499000C9499000C9499000C949900DC
:100040000C9499000C9499000C94FA000C9499006B
:100050000C9499000C9499000C9499000C949900BC
:100060000C9499000C9499000C94A1030C949900A1
:100070000C9499000C9499000C9499000C9499009C
:100080000C9499000C9499000C94990000000007BE
:100090000002010000030406000000000000000050
:1000A000010204081020408001020408102001020F
:1000B00004081020040404040404040402020202DC
:1000C00002020303030303030000000025002800CD
:1000D0002B00F50211241FBECFEFD0E4DEBFCDBF51
:1000E00011E0A0E0B1E0ECE9FAE000E00BBF02C0F3
:1000F00007900D92A031B107D9F711E0A0E1B1E06E
:1001000001C01D92A03EB107E1F710E0C4EDD0E0C0
:1001100000E006C022970109FE010BBF0E944805BE
:10012000C23DD10780E00807A9F70E94DC010C94CA
:1001300045050C940000CF93C82F8CE191E00E94FC
:10014000DD02E0911C01F0911D010190F081E02D94
:100150006C2F8CE191E009958CE191E0CF910C94AA
:10016000F20283309105C1F034F48130910551F0F1
:10017000029739F50CC085309105C1F094F00697CF
:1001800001F519C06CE070E081E090E018C06CE00F
:1001900070E082E090E013C06BE070E083E090E0FC
:1001A0000EC06BE070E084E090E009C06BE070E0AE
:1001B00085E090E004C06BE070E086E090E00E9493
:1001C0009B001092100108956AE070E08CE191E0CC
:1001D0000C94D10280911001882331F0809111019B
:1001E000909112010E94B10064E670E080E090E01E
:1001F0000C946E011F920F920FB60F9211242F9341
:100200003F938F939F93AF93BF93809113019091EE
:100210001401A0911501B091160130911B01232FFB
:100220002D5F2D3720F40196A11DB11D05C0232F90
:100230002A570296A11DB11D20931B018093130123
:1002400090931401A0931501B093160180911701AA
:1002500090911801A0911901B0911A010196A11D68
:10026000B11D8093170190931801A0931901B093C9
:100270001A01BF91AF919F918F913F912F910F9054
:100280000FBE0F901F9018950F931F939FB7F89470
:1002900000911701109118012091190130911A0154
:1002A00086B5A89B06C08F3F21F00F5F1F4F2F4FD1
:1002B0003F4F9FBF322F212F102F0027080F111DF6
:1002C000211D311D42E0000F111F221F331F4A95CF
:1002D000D1F7B801C9011F910F910895CF92DF9214
:1002E000EF92FF92CF93DF936B017C010E94440158
:1002F000EB010EC00E9444016C1B7D0B683E7340F5
:1003000038F081E0C81AD108E108F108C851DC4F83
:10031000C114D104E104F10469F7DF91CF91FF909A
:10032000EF90DF90CF900895789484B5826084BD7B
:1003300084B5816084BD85B5826085BD85B58160E9
:1003400085BDEEE6F0E0808181608083E1E8F0E049
:100350001082808182608083808181608083E0E878
:10036000F0E0808181608083E1EBF0E08081846057
:100370008083E0EBF0E0808181608083E1E9F0E060
:10038000808182608083808181608083E0E9F0E009
:10039000808181608083EAE7F0E0808184608083EF
:1003A0008081826080838081816080838081806899
:1003B00080831092C10008950E9494010E94E4007D
:1003C000C0E0D0E00E94EA002097E1F30E94000024
:1003D000F9CF2091500130E080915101281B310963
:1003E000C90108958091510190915001891750F4ED
:1003F000E82FF0E0EE5AFE4F208130E08F5F8093CF
:10040000510102C02FEF3FEFC9010895E091510162
:1004100080915001E81730F4F0E0EE5AFE4F208151
:1004200030E002C02FEF3FEFC90108950895E09139
:100430002801F09129013097E1F03091510120918C
:1004400050013217B0F040E009C0DC01A20FB31F29
:100450005C91D901AE5ABE4F5C934F5F242F30E0C0
:100460002617370794F31092510160935001CB0186
:1004700009940895E0912A01F0912B01309729F019
:1004800010922E0110922D0109940895CF92DF92BF
:10049000EF92FF920F931F93CF93DF937C01CB01D9
:1004A0008A0120912C01222391F0EB016B01C40EF3
:1004B000D51E09C06991D701ED91FC910190F081A1
:1004C000E02DC7010995CC15DD05A1F703C0642F08
:1004D0000E946E03C801DF91CF911F910F91FF9091
:1004E000EF90DF90CF900895CF93DF931F92CDB719
:1004F000DEB7698320912C012223D1F020912D01B8
:10050000203240F021E030E0FC013383228320E000
:1005100030E015C080912E01E82FF0E0E15DFE4F44
:10052000998190838F5F80932E0180932D0105C068
:1005300061E0CE0101960E946E0321E030E0C90126
:100540000F90DF91CF910895FC011382128248EE43
:1005500053E060E070E0448355836683778384E0F2
:1005600091E091838083089510925101109250017F
:1005700010922E0110922D010C94F902CF93DF936B
:10058000EC01862F0E9417038AE392E00E948C03FD
:1005900087E192E00E948703CE01DF91CF910C9416
:1005A000B4020C94BE0281E080932C0160934F0151
:1005B00010922E0110922D0108950C94D3020F93E6
:1005C000062F21E040912D016FE271E080914F01F3
:1005D0000E941B0310922E0110922D0110922C01EB
:1005E0000F91089561E00C94DF028CE191E00C948E
:1005F000A40210927B0181E080937901109278012E
:1006000061E082E10E940E0561E083E10E940E0537
:10061000E9EBF0E080818E7F808380818D7F808315
:1006200088E48093B80085E48093BC000895880F27
:100630008093BA0008950F93413208F046C090911C
:100640007B019111FCCF92E090937B0100937901A3
:100650009FEF909372011092770140937601FB0116
:100660006CE771E0DB0102C091919D939A2F961B7C
:100670009417D0F310927A0190917A01880F892B08
:1006800080937A0180917801813041F41092780151
:1006900080917A018093BB0085EC01C085EE809348
:1006A000BC00222321F080917B018230E1F3809114
:1006B00072018F3F61F080917201803251F0809120
:1006C0007201803341F483E007C081E005C080E01F
:1006D00003C082E001C084E00F910895613298F474
:1006E00020917B01243089F460937401FC018CE932
:1006F00091E0DC0102C021912D932A2F281B26179F
:10070000D0F380E0089581E0089582E00895909309
:10071000BD018093BC0108959093BF018093BE01F9
:10072000089585ED8093BC008091BC0084FDFCCFD2
:1007300010927B01089585EC8093BC0010927B01A0
:1007400008951F920F920FB60F9211240BB60F92BD
:100750002F933F934F935F936F937F938F939F93C9
:10076000AF93BF93EF93FF938091B900887F80365A
:1007700009F49FC058F5883209F45BC090F48031C9
:1007800009F452C038F4882309F4F8C0883009F01D
:10079000F9C04AC0883109F44CC0803209F0F2C077
:1007A0005CC0803409F46BC038F4803309F455C060
:1007B000883309F0E7C054C0803509F454C0883547
:1007C00009F462C0883409F0DDC0DAC0883909F460
:1007D000CBC0A8F4883709F46CC038F4883609F423
:1007E00068C0803709F0CEC064C0883809F4BCC046
:1007F000803909F464C0803809F0C4C060C0803B0F
:1008000009F48AC038F4803A09F46BC0883A09F0D8
:10081000B9C082C0803C09F4ABC0883C09F4A8C0D0
:10082000883B09F0AFC08DC080917A018093BB00F6
:1008300012C09091770180917601981788F5809188
:100840007701E82FF0E0E458FE4F90819093BB00D1
:100850008F5F8093770185EC88C08093720190C090
:100860008093720156C0809177019091BB00E82F70
:10087000F0E0E458FE4F90838F5F80937701909172
:100880007701809176016DC0809177019091BB00D6
:10089000E82FF0E0E458FE4F90838F5F809377015C
:1008A0008091790181116CC081E08093780184EAA4
:1008B00060C083E080937B0110927301CCCF809164
:1008C0007301803208F050C0809173019091BB0099
:1008D000E82FF0E0E054FE4F90838F5F8093730128
:1008E000BACF80917301803230F4E0917301F0E06F
:1008F000E054FE4F10820E94910360917301E091D9
:10090000BC01F091BD0170E080EC91E0099510927E
:1009100073010E949B0336C084E080937B01109298
:10092000750110927401E091BE01F091BF0109952B
:1009300080917401811105C081E08093740110924F
:100940009C0180917501E82FF0E0E456FE4F908104
:100950009093BB008F5F809375019091750180919A
:100960007401981708F477CF85E88093BC000AC01B
:1009700085EC8093BC0010927B0104C01092720140
:100980000E949103FF91EF91BF91AF919F918F9141
:100990007F916F915F914F913F912F910F900BBE7F
:1009A0000F900FBE0F901F9018958430B1F030F467
:1009B0008230E1F070F4813081F515C08730F1F0BC
:1009C00018F4863051F516C08830F1F0893029F5D9
:1009D0001FC0809180008F7703C0809180008F7D41
:1009E00080938000089584B58F7702C084B58F7D91
:1009F00084BD08958091B0008F7703C08091B000CE
:100A00008F7D8093B0000895809190008F7703C010
:100A1000809190008F7D8093900008950F931F9395
:100A2000CF93DF931F92CDB7DEB7282F30E0F901C7
:100A3000E457FF4F8491F901E056FF4F1491F901FB
:100A4000EC54FF4F04910023D1F0882321F06983F7
:100A50000E94D5046981E02FF0E0EE0FFF1FE853FC
:100A6000FF4F85919491DC019FB7F8948C916111AF
:100A700003C01095812301C0812B8C939FBF0F90E1
:100A8000DF91CF911F910F910895F8940C944C052C
:0C0A90000790F691E02D0994F894FFCF38
:100A9C000000000074024602E901F201060216028F
:00000001FF
