:100000000C945D000C9485000C9485000C94850084
:100010000C9485000C9485000C9485000C9485004C
:100020000C9485000C9485000C9485000C9485003C
:100030000C9485000C9485000C9485000C9485002C
:100040000C9484010C9485000C9485000C9485001C
:100050000C9485000C9485000C9485000C9485000C
:100060000C9449040C948500000000070002010074
:100070000003040600000000000000000102040864
:100080001020408001020408102001020408102002
:10009000040404040404040402020202020203032E
:1000A0000303030300000000250028002B000000CC
:1000B0000000240027002A00F00311241FBECFEF08
:1000C000D8E0DEBFCDBF11E0A0E0B1E0ECEAFDE09A
:1000D00002C005900D92A631B107D9F711E0A6E153
:1000E000B1E001C01D92AD3EB107E1F710E0CAEBEF
:1000F000D0E004C02297FE010E94D006C83BD10781
:10010000C9F70E94F2020C94B0060C9400000F9301
:10011000CF93DF9300D0CDB7DEB7FC01862F60838D
:1001200041832283038361E02A8349830E948302FF
:1001300061E04981842F0E94830261E02A81822F3D
:100140000E94830261E0802F0F900F90DF91CF918A
:100150000F910C948302CF93DF93EC0161E08881CF
:100160000E94BB0260E089810E94BB0260E08A813C
:100170000E94BB0261E08B810E94BB026AE070E0DA
:1001800080E090E00E94F80161E088810E94BB025B
:1001900060E089810E94BB0261E08A810E94BB020B
:1001A00060E08B810E94BB026AE070E080E090E03A
:1001B0000E94F80160E088810E94BB0261E08981B1
:1001C0000E94BB0261E08A810E94BB0260E08B81D9
:1001D0000E94BB026AE070E080E090E00E94F801BB
:1001E00060E088810E94BB0261E089810E94BB02BD
:1001F00060E08A810E94BB0261E08B810E94BB02A9
:100200006AE070E080E090E0DF91CF910C94F8011B
:100210000895CF93C1E00AC086E291E00E940A03EC
:1002200090931C0180931B01C0931A0186E291E018
:100230000E940103892B81F7CF91089584309105A5
:1002400079F01CF40397E9F406C08530910569F054
:100250000697B9F410C0809116019091170109C05A
:1002600080911601909117010AC080911801909118
:1002700019010C94AB0080911801909119010C9414
:10028000080108950F93CF93DF936BE070E086E24F
:1002900091E00E94E90384E090E00E94FF02EC01FB
:1002A0000BE02AE049E068E00E948700D093170144
:1002B000C093160184E090E00E94FF02EC0107E089
:1002C00026E045E064E00E948700D0931901C093C6
:1002D000180169E071E086E291E0DF91CF910F9122
:1002E0000C94EB0380911A01813041F480911B0141
:1002F00090911C010E941E0110921A0164E670E0A8
:1003000080E090E00C94F8011F920F920FB60F92CC
:1003100011242F933F938F939F93AF93BF9380911B
:100320001D0190911E01A0911F01B09120013091FB
:100330002501232F2D5F2D3720F40196A11DB11D1E
:1003400005C0232F2A570296A11DB11D2093250118
:1003500080931D0190931E01A0931F01B093200173
:100360008091210190912201A0912301B09124015B
:100370000196A11DB11D8093210190932201A093AC
:100380002301B0932401BF91AF919F918F913F9131
:100390002F910F900FBE0F901F9018950F931F93E2
:1003A0009FB7F8940091210110912201209123011F
:1003B0003091240186B5A89B06C08F3F21F00F5FC6
:1003C0001F4F2F4F3F4F9FBF322F212F102F00273E
:1003D000080F111D211D311D42E0000F111F221FAA
:1003E000331F4A95D1F7B801C9011F910F910895A4
:1003F000CF92DF92EF92FF92CF93DF936B017C015C
:100400000E94CE01EB010EC00E94CE016C1B7D0B41
:10041000683E734038F081E0C81AD108E108F1085D
:10042000C851DC4FC114D104E104F10469F7DF9134
:10043000CF91FF90EF90DF90CF900895789484B59E
:10044000826084BD84B5816084BD85B5826085BDD0
:1004500085B5816085BDEEE6F0E0808181608083B6
:10046000E1E8F0E010828081826080838081816099
:100470008083E0E8F0E0808181608083E1EBF0E060
:10048000808184608083E0EBF0E080818160808304
:10049000EAE7F0E0808184608083808182608083ED
:1004A0008081816080838081806880831092C10018
:1004B0000895833069F028F48130A1F0823011F57D
:1004C00014C08630B1F08730C1F08430D9F404C054
:1004D000809180008F7703C0809180008F7D809312
:1004E0008000089584B58F7702C084B58F7D84BD68
:1004F00008958091B0008F7703C08091B0008F7D08
:100500008093B0000895CF93DF9390E0FC01E4580E
:10051000FF4F4491FC01E057FF4F8491882341F144
:1005200090E0880F991FFC01E255FF4F259134910F
:10053000D9018C559F4FFC0185919491C82FD92FDB
:100540009FB7F8948C91611106C0409584238C93D9
:100550008881842308C0623041F4242F20958223AF
:100560008C938881842B888302C0842B8C939FBFBB
:10057000DF91CF9108950F931F93CF93DF931F9235
:10058000CDB7DEB7282F30E0F901E859FF4F84914D
:10059000F901E458FF4F1491F901E057FF4F04911E
:1005A0000023D1F0882321F069830E9459026981D8
:1005B000E02FF0E0EE0FFF1FEC55FF4F8591949177
:1005C000DC019FB7F8948C91611103C010958123D1
:1005D00001C0812B8C939FBF0F90DF91CF911F9112
:1005E0000F9108950E941E020E944201C0E0D0E0D7
:1005F0000E9472012097E1F30E940000F9CF0C9451
:1006000079052091590130E080915A01281B310968
:10061000C901089580915A0190915901891750F4A8
:10062000E82FF0E0E55AFE4F208130E08F5F8093A5
:100630005A0102C02FEF3FEFC9010895E0915A011E
:1006400080915901E81730F4F0E0E55AFE4F20811F
:1006500030E002C02FEF3FEFC90108950895E09107
:100660003201F09133013097E1F030915A0120913D
:1006700059013217B0F040E009C0DC01A20FB31FEE
:100680005C91D901A55ABE4F5C934F5F242F30E097
:100690002617370794F310925A0160935901CB0142
:1006A00009940895E0913401F0913501309729F0D3
:1006B000109238011092370109940895CF92DF9279
:1006C000EF92FF920F931F93CF93DF937C01CB01A7
:1006D0008A0120913601222391F0EB016B01C40EB7
:1006E000D51E09C06991D701ED91FC910190F0816F
:1006F000E02DC7010995CC15DD05A1F703C0642FD6
:100700000E941604C801DF91CF911F910F91FF90B5
:10071000EF90DF90CF900895CF93DF931F92CDB7E6
:10072000DEB76983209136012223D1F02091370171
:10073000203240F021E030E0FC013383228320E0CE
:1007400030E015C080913801E82FF0E0E75CFE4F03
:10075000998190838F5F809338018093370105C022
:1007600061E0CE0101960E94160421E030E0C9014B
:100770000F90DF91CF910895FC011382128248EE11
:1007800053E060E070E044835583668377838AE0BA
:1007900091E091838083089510925A01109259013B
:1007A00010923801109237010C94F403CF93DF9329
:1007B000EC01862F0E94120482E593E00E9434042B
:1007C0008FE293E00E942F04CE01DF91CF910C9431
:1007D000CC030C94D60370933301609332010895D7
:1007E00086E291E00C94BC031092840181E0809336
:1007F00082011092810161E082E10E94BB0261E00E
:1008000083E10E94BB02E9EBF0E080818E7F808370
:1008100080818D7F808388E48093B80085E4809315
:10082000BC000895880F8093BA000895613298F44F
:1008300020918401243089F460937D01FC0185EAD4
:1008400091E0DC0102C021912D932A2F281B26174D
:10085000D0F380E0089581E0089582E008959093B8
:10086000C6018093C50108959093C8018093C70184
:10087000089585ED8093BC008091BC0084FDFCCF81
:1008800010928401089585EC8093BC00109284013D
:1008900008951F920F920FB60F9211242F933F933A
:1008A0004F935F936F937F938F939F93AF93BF9378
:1008B000EF93FF938091B900887F803609F49FC041
:1008C00058F5883209F45BC090F4803109F452C0C5
:1008D00038F4882309F4F8C0883009F0F9C04AC018
:1008E000883109F44CC0803209F0F2C05CC0803419
:1008F00009F46BC038F4803309F455C0883309F02B
:10090000E7C054C0803509F454C0883509F462C08A
:10091000883409F0DDC0DAC0883909F4CBC0A8F406
:10092000883709F46CC038F4883609F468C0803719
:1009300009F0CEC064C0883809F4BCC0803909F41D
:1009400064C0803809F0C4C060C0803B09F48AC02C
:1009500038F4803A09F46BC0883A09F0B9C082C013
:10096000803C09F4ABC0883C09F4A8C0883B09F07E
:10097000AFC08DC0809183018093BB0012C0909165
:10098000800180917F01981788F580918001E82F80
:10099000F0E0EB57FE4F90819093BB008F5F809308
:1009A000800185EC88C080937B0190C080937B019F
:1009B00056C0809180019091BB00E82FF0E0EB578A
:1009C000FE4F90838F5F8093800190918001809192
:1009D0007F016DC0809180019091BB00E82FF0E015
:1009E000EB57FE4F90838F5F80938001809182014F
:1009F00081116CC081E08093810184EA60C083E052
:100A00008093840110927C01CCCF80917C01803254
:100A100008F050C080917C019091BB00E82FF0E07D
:100A2000E753FE4F90838F5F80937C01BACF809114
:100A30007C01803230F4E0917C01F0E0E753FE4F1E
:100A400010820E94390460917C01E091C501F0910F
:100A5000C60170E089EC91E0099510927C010E943A
:100A6000430436C084E08093840110927E0110928A
:100A70007D01E091C701F091C801099580917D0148
:100A8000811105C081E080937D011092A5018091C4
:100A90007E01E82FF0E0EB55FE4F90819093BB0074
:100AA0008F5F80937E0190917E0180917D019817E8
:100AB00008F477CF85E88093BC000AC085EC80936A
:100AC000BC001092840104C010927B010E94390482
:100AD000FF91EF91BF91AF919F918F917F916F9116
:100AE0005F914F913F912F910F900FBE0F901F90EC
:100AF00018950F931F93CF93DF938230910510F4D5
:100B000082E090E0E091EB01F091EC0120E030E038
:100B1000C0E0D0E023C04081518148175907A8F0B8
:100B20004817590761F482819381209719F09B83BC
:100B30008A832EC09093EC018093EB0129C021158C
:100B4000310529F04217530710F0A90102C0BE0178
:100B5000DF0102811381EF019A01F8013097D9F684
:100B60002115310509F1281B390B2430310590F48A
:100B700012968D919C9113976115710521F0FB01DF
:100B80009383828304C09093EC018093EB01FD0179
:100B9000329644C0FD01E20FF31F819391932250DE
:100BA00031092D933C933AC02091E9013091EA013B
:100BB000232B41F420910201309103013093EA018B
:100BC0002093E901209100013091010121153105A7
:100BD00041F42DB73EB74091040150910501241B0B
:100BE000350BE091E901F091EA01E217F307A0F477
:100BF0002E1B3F0B2817390778F0AC014E5F5F4F73
:100C00002417350748F04E0F5F1F5093EA014093B9
:100C1000E9018193919302C0E0E0F0E0CF01DF9120
:100C2000CF911F910F910895EF92FF920F931F9311
:100C3000CF93DF93009709F48EC0DC0112971396CF
:100C40001C921E921297E090EB01F090EC01E114DF
:100C5000F10489F42D913C911197280F391F80914F
:100C6000E9019091EA018217930789F5B093EA01AF
:100C7000A093E90170C0E70120E030E001C0EA0183
:100C8000CA17DB0738F44A815B819E014115510583
:100C9000B1F722C0AC0142505109FA01D383C2839B
:100CA00000811181BC01600F711F6C177D0761F419
:100CB00068817981600F711F6E5F7F4F71836083E0
:100CC0006A817B81738362832115310529F4B09396
:100CD000EC01A093EB013FC0F901B383A283E901CA
:100CE00049915991C40FD51FAC17BD0771F4DC01B0
:100CF0009E918E91840F951F029691838083129608
:100D00008D919C91139793838283A0E0B0E002C001
:100D1000D7017C01F701828193810097C9F7C70150
:100D2000029620813181820F931F2091E901309139
:100D3000EA012817390779F4109729F41092EC0189
:100D40001092EB0104C013961C921E921297F0921F
:100D5000EA01E092E901CDB7DEB7E6E00C94BF0608
:100D6000F8940C94D4062A88398848885F846E8465
:100D70007D848C849B84AA84B984C884DF80EE80BF
:100D8000FD800C811B81AA81B981CE0FD11D0FB6C8
:100D9000F894DEBF0FBECDBFED010895EE0FFF1F2B
:0C0DA0000590F491E02D0994F894FFCF29
:100DAC000000ED012000000000008C035E03010335
:060DBC000A031E032E03D2
:00000001FF
